{
  "contractName": "Muncipality",
  "abi": [
    {
      "inputs": [],
      "payable": false,
      "stateMutability": "nonpayable",
      "type": "constructor"
    },
    {
      "constant": true,
      "inputs": [],
      "name": "MuncipalityLength",
      "outputs": [
        {
          "internalType": "uint256",
          "name": "",
          "type": "uint256"
        }
      ],
      "payable": false,
      "stateMutability": "view",
      "type": "function"
    },
    {
      "constant": true,
      "inputs": [],
      "name": "Owner",
      "outputs": [
        {
          "internalType": "address",
          "name": "",
          "type": "address"
        }
      ],
      "payable": false,
      "stateMutability": "view",
      "type": "function"
    },
    {
      "constant": true,
      "inputs": [],
      "name": "UserLength",
      "outputs": [
        {
          "internalType": "uint256",
          "name": "",
          "type": "uint256"
        }
      ],
      "payable": false,
      "stateMutability": "view",
      "type": "function"
    },
    {
      "constant": true,
      "inputs": [
        {
          "internalType": "uint256",
          "name": "",
          "type": "uint256"
        }
      ],
      "name": "allMun",
      "outputs": [
        {
          "internalType": "address",
          "name": "muncipalityadrress",
          "type": "address"
        },
        {
          "internalType": "uint256",
          "name": "uid",
          "type": "uint256"
        },
        {
          "internalType": "uint256",
          "name": "length",
          "type": "uint256"
        }
      ],
      "payable": false,
      "stateMutability": "view",
      "type": "function"
    },
    {
      "constant": true,
      "inputs": [
        {
          "internalType": "uint256",
          "name": "",
          "type": "uint256"
        }
      ],
      "name": "allUser",
      "outputs": [
        {
          "internalType": "string",
          "name": "uid",
          "type": "string"
        },
        {
          "internalType": "string",
          "name": "BirthHash",
          "type": "string"
        },
        {
          "internalType": "string",
          "name": "DeathHash",
          "type": "string"
        },
        {
          "internalType": "uint256",
          "name": "length",
          "type": "uint256"
        }
      ],
      "payable": false,
      "stateMutability": "view",
      "type": "function"
    },
    {
      "constant": true,
      "inputs": [
        {
          "internalType": "uint256",
          "name": "",
          "type": "uint256"
        }
      ],
      "name": "isPresent",
      "outputs": [
        {
          "internalType": "bool",
          "name": "",
          "type": "bool"
        }
      ],
      "payable": false,
      "stateMutability": "view",
      "type": "function"
    },
    {
      "constant": false,
      "inputs": [
        {
          "internalType": "uint256",
          "name": "uid",
          "type": "uint256"
        }
      ],
      "name": "CheckPresence",
      "outputs": [
        {
          "internalType": "bool",
          "name": "",
          "type": "bool"
        }
      ],
      "payable": false,
      "stateMutability": "nonpayable",
      "type": "function"
    },
    {
      "constant": false,
      "inputs": [
        {
          "internalType": "address",
          "name": "muncipalityadrress",
          "type": "address"
        },
        {
          "internalType": "uint256",
          "name": "uid",
          "type": "uint256"
        }
      ],
      "name": "AddMuncipality",
      "outputs": [
        {
          "internalType": "bool",
          "name": "",
          "type": "bool"
        }
      ],
      "payable": false,
      "stateMutability": "nonpayable",
      "type": "function"
    },
    {
      "constant": false,
      "inputs": [
        {
          "internalType": "uint256",
          "name": "munId",
          "type": "uint256"
        },
        {
          "internalType": "string",
          "name": "uid",
          "type": "string"
        },
        {
          "internalType": "string",
          "name": "_BirthHash",
          "type": "string"
        }
      ],
      "name": "AddUserBirthHash",
      "outputs": [
        {
          "internalType": "bool",
          "name": "",
          "type": "bool"
        }
      ],
      "payable": false,
      "stateMutability": "nonpayable",
      "type": "function"
    },
    {
      "constant": false,
      "inputs": [
        {
          "internalType": "uint256",
          "name": "munId",
          "type": "uint256"
        },
        {
          "internalType": "string",
          "name": "uid",
          "type": "string"
        },
        {
          "internalType": "string",
          "name": "_DeathHash",
          "type": "string"
        }
      ],
      "name": "AddDeathhash",
      "outputs": [
        {
          "internalType": "bool",
          "name": "",
          "type": "bool"
        }
      ],
      "payable": false,
      "stateMutability": "nonpayable",
      "type": "function"
    },
    {
      "constant": true,
      "inputs": [
        {
          "internalType": "string",
          "name": "uid",
          "type": "string"
        }
      ],
      "name": "getBirthCertificate",
      "outputs": [
        {
          "internalType": "string",
          "name": "",
          "type": "string"
        }
      ],
      "payable": false,
      "stateMutability": "view",
      "type": "function"
    },
    {
      "constant": true,
      "inputs": [
        {
          "internalType": "string",
          "name": "uid",
          "type": "string"
        }
      ],
      "name": "getDeathCertificate",
      "outputs": [
        {
          "internalType": "string",
          "name": "",
          "type": "string"
        }
      ],
      "payable": false,
      "stateMutability": "view",
      "type": "function"
    },
    {
      "constant": true,
      "inputs": [],
      "name": "getAllData",
      "outputs": [
        {
          "components": [
            {
              "internalType": "string",
              "name": "uid",
              "type": "string"
            },
            {
              "internalType": "string",
              "name": "BirthHash",
              "type": "string"
            },
            {
              "internalType": "string",
              "name": "DeathHash",
              "type": "string"
            },
            {
              "internalType": "uint256",
              "name": "length",
              "type": "uint256"
            }
          ],
          "internalType": "struct Muncipality.UserData[]",
          "name": "",
          "type": "tuple[]"
        }
      ],
      "payable": false,
      "stateMutability": "view",
      "type": "function"
    }
  ],
  "bytecode": "0x60806040526000600455600060055534801561001a57600080fd5b50600080546001600160a01b031916331790556114668061003c6000396000f3fe608060405234801561001057600080fd5b50600436106100cf5760003560e01c806345a020a51161008c578063a22dd51c11610066578063a22dd51c146101ab578063b4a99a4e146101be578063e8cdd200146101d3578063eeeffa7e146101e6576100cf565b806345a020a51461016d5780637a0598131461019057806398b5885714610198576100cf565b80631cae92a3146100d45780632ccd242d146100fd5780632d10fa2814610110578063367b720e1461012557806340373fe414610145578063445256f31461015a575b600080fd5b6100e76100e2366004610f52565b610208565b6040516100f491906112b5565b60405180910390f35b6100e761010b366004610fe7565b610327565b610118610429565b6040516100f491906112a4565b610138610133366004610f8c565b610656565b6040516100f491906112c3565b61014d6107d9565b6040516100f49190611325565b6100e7610168366004610fc9565b6107df565b61018061017b366004610fc9565b61080b565b6040516100f494939291906112d4565b61014d6109f1565b6100e76101a6366004610fe7565b6109f7565b6101386101b9366004610f8c565b610c9e565b6101c6610da0565b6040516100f4919061126e565b6100e76101e1366004610fc9565b610daf565b6101f96101f4366004610fc9565b610dc4565b6040516100f49392919061127c565b600080546001600160a01b0316331461022057600080fd5b610229826107df565b61031d57610235610dfe565b5050604080516060810182526001600160a01b038481168252602080830185815260048054858701908152600180548082018255600082815297517fb10e2d527612073b26eecdfd717e6a320cf44b4afac2b0732d9fcbe2b7fa0cf6600392830290810180546001600160a01b031916929099169190911790975593517fb10e2d527612073b26eecdfd717e6a320cf44b4afac2b0732d9fcbe2b7fa0cf787015590517fb10e2d527612073b26eecdfd717e6a320cf44b4afac2b0732d9fcbe2b7fa0cf8909501949094558054840190558584529052919020805460ff191682179055610321565b5060005b92915050565b6000610332846107df565b1561041e5761033f610e28565b50604080516080810182528481526020808201859052825180840184526001808252600160fd1b82840152938301526005546060830152600280549384018082556000919091528251805193949193859360049093027f405787fa12a823e0f2b7631cc41b3ba8828b3321ca811111fa75cd3aa3bb5ace01926103c6928492910190610e50565b5060208281015180516103df9260018501920190610e50565b50604082015180516103fb916002840191602090910190610e50565b506060919091015160039091015550506005805460019081019091559050610422565b5060005b9392505050565b60606002805480602002602001604051908101604052809291908181526020016000905b8282101561064c5760008481526020908190206040805160048602909201805460026001821615610100026000190190911604601f8101859004909402830160a090810190925260808301848152929390928492909184918401828280156104f65780601f106104cb576101008083540402835291602001916104f6565b820191906000526020600020905b8154815290600101906020018083116104d957829003601f168201915b50505050508152602001600182018054600181600116156101000203166002900480601f0160208091040260200160405190810160405280929190818152602001828054600181600116156101000203166002900480156105985780601f1061056d57610100808354040283529160200191610598565b820191906000526020600020905b81548152906001019060200180831161057b57829003601f168201915b5050509183525050600282810180546040805160206001841615610100026000190190931694909404601f8101839004830285018301909152808452938101939083018282801561062a5780601f106105ff5761010080835404028352916020019161062a565b820191906000526020600020905b81548152906001019060200180831161060d57829003601f168201915b505050505081526020016003820154815250508152602001906001019061044d565b5050505090505b90565b606060005b60055481101561079d57826040516020016106769190611256565b604051602081830303815290604052805190602001206002828154811061069957fe5b90600052602060002090600402016000016040516020016106ba9190611262565b60405160208183030381529060405280519060200120141561079557600281815481106106e357fe5b90600052602060002090600402016001018054600181600116156101000203166002900480601f0160208091040260200160405190810160405280929190818152602001828054600181600116156101000203166002900480156107885780601f1061075d57610100808354040283529160200191610788565b820191906000526020600020905b81548152906001019060200180831161076b57829003601f168201915b50505050509150506107d4565b60010161065b565b505060408051808201909152601a81527f4e6f20757365722077697468207468697320696420666f756e6400000000000060208201525b919050565b60055481565b60008181526003602052604081205460ff16151560011415610803575060016107d4565b506000919050565b6002818154811061081857fe5b60009182526020918290206004919091020180546040805160026001841615610100026000190190931692909204601f8101859004850283018501909152808252919350918391908301828280156108b15780601f10610886576101008083540402835291602001916108b1565b820191906000526020600020905b81548152906001019060200180831161089457829003601f168201915b505050505090806001018054600181600116156101000203166002900480601f01602080910402602001604051908101604052809291908181526020018280546001816001161561010002031660029004801561094f5780601f106109245761010080835404028352916020019161094f565b820191906000526020600020905b81548152906001019060200180831161093257829003601f168201915b50505060028085018054604080516020601f60001961010060018716150201909416959095049283018590048502810185019091528181529596959450909250908301828280156109e15780601f106109b6576101008083540402835291602001916109e1565b820191906000526020600020905b8154815290600101906020018083116109c457829003601f168201915b5050505050908060030154905084565b60045481565b6000610a02846107df565b1561041e57610a0f610e28565b60005b600554811015610c8f5784604051602001610a2d9190611256565b6040516020818303038152906040528051906020012060028281548110610a5057fe5b9060005260206000209060040201600001604051602001610a719190611262565b604051602081830303815290604052805190602001201415610c875760028181548110610a9a57fe5b600091825260209182902060408051600493909302909101805460026001821615610100026000190190911604601f8101859004909402830160a09081019092526080830184815292939092849290918491840182828015610b3d5780601f10610b1257610100808354040283529160200191610b3d565b820191906000526020600020905b815481529060010190602001808311610b2057829003601f168201915b50505050508152602001600182018054600181600116156101000203166002900480601f016020809104026020016040519081016040528092919081815260200182805460018160011615610100020316600290048015610bdf5780601f10610bb457610100808354040283529160200191610bdf565b820191906000526020600020905b815481529060010190602001808311610bc257829003601f168201915b5050509183525050600282810180546040805160206001841615610100026000190190931694909404601f81018390048302850183019091528084529381019390830182828015610c715780601f10610c4657610100808354040283529160200191610c71565b820191906000526020600020905b815481529060010190602001808311610c5457829003601f168201915b5050505050815260200160038201548152505091505b600101610a12565b50604001829052506001610422565b606060005b60055481101561079d5782604051602001610cbe9190611256565b6040516020818303038152906040528051906020012060028281548110610ce157fe5b9060005260206000209060040201600001604051602001610d029190611262565b604051602081830303815290604052805190602001201415610d985760028181548110610d2b57fe5b600091825260209182902060026004909202018101805460408051601f6000196101006001861615020190931694909404918201859004850284018501905280835291929091908301828280156107885780601f1061075d57610100808354040283529160200191610788565b600101610ca3565b6000546001600160a01b031681565b60036020526000908152604090205460ff1681565b60018181548110610dd157fe5b60009182526020909120600390910201805460018201546002909201546001600160a01b03909116925083565b604051806060016040528060006001600160a01b0316815260200160008152602001600081525090565b6040518060800160405280606081526020016060815260200160608152602001600081525090565b828054600181600116156101000203166002900490600052602060002090601f016020900481019282601f10610e9157805160ff1916838001178555610ebe565b82800160010185558215610ebe579182015b82811115610ebe578251825591602001919060010190610ea3565b50610eca929150610ece565b5090565b61065391905b80821115610eca5760008155600101610ed4565b803561032181611403565b600082601f830112610f0457600080fd5b8135610f17610f128261135a565b611333565b91508082526020830160208301858383011115610f3357600080fd5b610f3e8382846113bd565b50505092915050565b80356103218161141a565b60008060408385031215610f6557600080fd5b6000610f718585610ee8565b9250506020610f8285828601610f47565b9150509250929050565b600060208284031215610f9e57600080fd5b813567ffffffffffffffff811115610fb557600080fd5b610fc184828501610ef3565b949350505050565b600060208284031215610fdb57600080fd5b6000610fc18484610f47565b600080600060608486031215610ffc57600080fd5b60006110088686610f47565b935050602084013567ffffffffffffffff81111561102557600080fd5b61103186828701610ef3565b925050604084013567ffffffffffffffff81111561104e57600080fd5b61105a86828701610ef3565b9150509250925092565b600061042283836111e4565b611079816113a1565b82525050565b600061108a82611394565b6110948185611398565b9350836020820285016110a685611382565b8060005b858110156110e057848403895281516110c38582611064565b94506110ce83611382565b60209a909a01999250506001016110aa565b5091979650505050505050565b611079816113ac565b600061110182611394565b61110b8185611398565b935061111b8185602086016113c9565b611124816113f9565b9093019392505050565b600061113982611394565b61114381856107d4565b93506111538185602086016113c9565b9290920192915050565b60008154600181166000811461117a576001811461119d576111dc565b607f600283041661118b81876107d4565b60ff19841681529550850192506111dc565b600282046111ab81876107d4565b95506111b685611388565b60005b828110156111d5578154888201526001909101906020016111b9565b5050850192505b505092915050565b80516080808452600091908401906111fc82826110f6565b9150506020830151848203602086015261121682826110f6565b9150506040830151848203604086015261123082826110f6565b9150506060830151611245606086018261124d565b509392505050565b61107981610653565b6000610422828461112e565b6000610422828461115d565b602081016103218284611070565b6060810161128a8286611070565b611297602083018561124d565b610fc1604083018461124d565b60208082528101610422818461107f565b6020810161032182846110ed565b6020808252810161042281846110f6565b608080825281016112e581876110f6565b905081810360208301526112f981866110f6565b9050818103604083015261130d81856110f6565b905061131c606083018461124d565b95945050505050565b60208101610321828461124d565b60405181810167ffffffffffffffff8111828210171561135257600080fd5b604052919050565b600067ffffffffffffffff82111561137157600080fd5b506020601f91909101601f19160190565b60200190565b60009081526020902090565b5190565b90815260200190565b6000610321826113b1565b151590565b6001600160a01b031690565b82818337506000910152565b60005b838110156113e45781810151838201526020016113cc565b838111156113f3576000848401525b50505050565b601f01601f191690565b61140c816113a1565b811461141757600080fd5b50565b61140c8161065356fea365627a7a723158205d7067725cb0ce34f1fe7d951b4a049d2ad6bf4fe7177dd4248d76bb789f24c06c6578706572696d656e74616cf564736f6c63430005100040",
  "source": "// SPDX-License-Identifier: MIT\r\npragma experimental ABIEncoderV2;\r\npragma solidity >=0.5.8;\r\n \r\ncontract Muncipality{\r\n    address public Owner;\r\n    MuncipalityData[] public allMun;\r\n    UserData[] public allUser;\r\n    struct MuncipalityData{\r\n        address muncipalityadrress;\r\n        uint uid;\r\n        uint length;\r\n    }\r\n    struct UserData{\r\n        string uid;\r\n        string BirthHash;\r\n        string DeathHash;\r\n        uint length;\r\n    }\r\n\r\n    mapping (uint=>bool) public isPresent;\r\n    uint public MuncipalityLength=0;\r\n    uint public UserLength=0;\r\n    constructor() public{\r\n        Owner=msg.sender;\r\n    }\r\n    modifier onlyOwner{\r\n        require(msg.sender==Owner);\r\n        _;\r\n    }\r\n    function CheckPresence(uint uid) public returns(bool){\r\n        if(isPresent[uid]==true){\r\n            return true;\r\n        }\r\n        return false;\r\n    }\r\n    function AddMuncipality(address muncipalityadrress,uint uid) public onlyOwner returns (bool){\r\n        if(!CheckPresence(uid)){\r\n        MuncipalityData memory NewMuncipality=MuncipalityData({\r\n            muncipalityadrress:muncipalityadrress,\r\n            uid:uid,\r\n            length:MuncipalityLength\r\n        });\r\n\r\n        allMun.push(NewMuncipality);\r\n           MuncipalityLength+=1;\r\n        isPresent[uid]=true;\r\n        return true;\r\n\r\n        }\r\n        else{\r\n            return false;\r\n        }\r\n    }\r\n    function AddUserBirthHash(uint munId,string memory uid,string memory _BirthHash) public returns(bool){\r\n        if(CheckPresence(munId)){\r\n            UserData memory newUser=UserData({\r\n                uid:uid,\r\n                BirthHash:_BirthHash,\r\n                DeathHash:' ',\r\n                length:UserLength\r\n            });\r\n            allUser.push(newUser);\r\n              UserLength+=1;\r\n            return true;\r\n\r\n        }\r\n        else{\r\n            return false;\r\n        }\r\n    } \r\n    function AddDeathhash(uint munId,string memory uid,string memory _DeathHash) public returns(bool){\r\n        if(CheckPresence(munId)){\r\n            UserData memory deadUser;\r\n            for(uint i=0;i<UserLength;i++){\r\n                if(keccak256(abi.encodePacked((allUser[i].uid)))==keccak256(abi.encodePacked((uid)))){\r\n                    // console.log('In here');\r\n                    deadUser=allUser[i];\r\n                }\r\n            }\r\n            deadUser.DeathHash=_DeathHash;\r\n            return true;\r\n        }\r\n        else{\r\n            return false;\r\n        }\r\n    }\r\n    function getBirthCertificate(string memory uid) public view returns(string memory){\r\n            for(uint i=0;i<UserLength;i++){\r\n          if(keccak256(abi.encodePacked((allUser[i].uid)))==keccak256(abi.encodePacked((uid)))){\r\n                    return allUser[i].BirthHash;\r\n                }\r\n            }\r\n            return \"No user with this id found\";\r\n\r\n    }\r\n          function getDeathCertificate(string memory uid) public view returns(string memory){\r\n            for(uint i=0;i<UserLength;i++){\r\n            if(keccak256(abi.encodePacked((allUser[i].uid)))==keccak256(abi.encodePacked((uid)))){\r\n                    return allUser[i].DeathHash;\r\n                }\r\n            }\r\n            return \"No user with this id found\";\r\n\r\n    }\r\n    function getAllData() public view returns(UserData[] memory){\r\n        return allUser;\r\n    }\r\n\r\n}\r\n",
  "sourcePath": "C:/Users/hpp/Documents/Project_SmartContract/Pramanit/Project_SmartContract/contracts/Muncipality.sol",
  "compiler": {
    "name": "solc",
    "version": "0.5.16+commit.9c3226ce.Emscripten.clang"
  },
  "schemaVersion": "3.4.1",
  "updatedAt": "2022-06-09T06:04:29.746Z",
  "networkType": "ethereum",
  "devdoc": {
    "methods": {}
  },
  "userdoc": {
    "methods": {}
  }
}