{
  "contractName": "Muncipality",
  "abi": [
    {
      "inputs": [],
      "payable": false,
      "stateMutability": "nonpayable",
      "type": "constructor"
    },
    {
      "constant": true,
      "inputs": [],
      "name": "MuncipalityLength",
      "outputs": [
        {
          "internalType": "uint256",
          "name": "",
          "type": "uint256"
        }
      ],
      "payable": false,
      "stateMutability": "view",
      "type": "function"
    },
    {
      "constant": true,
      "inputs": [],
      "name": "Owner",
      "outputs": [
        {
          "internalType": "address",
          "name": "",
          "type": "address"
        }
      ],
      "payable": false,
      "stateMutability": "view",
      "type": "function"
    },
    {
      "constant": true,
      "inputs": [],
      "name": "UserLength",
      "outputs": [
        {
          "internalType": "uint256",
          "name": "",
          "type": "uint256"
        }
      ],
      "payable": false,
      "stateMutability": "view",
      "type": "function"
    },
    {
      "constant": true,
      "inputs": [
        {
          "internalType": "uint256",
          "name": "",
          "type": "uint256"
        }
      ],
      "name": "allMun",
      "outputs": [
        {
          "internalType": "address",
          "name": "muncipalityadrress",
          "type": "address"
        },
        {
          "internalType": "uint256",
          "name": "uid",
          "type": "uint256"
        },
        {
          "internalType": "uint256",
          "name": "length",
          "type": "uint256"
        }
      ],
      "payable": false,
      "stateMutability": "view",
      "type": "function"
    },
    {
      "constant": true,
      "inputs": [
        {
          "internalType": "uint256",
          "name": "",
          "type": "uint256"
        }
      ],
      "name": "allUser",
      "outputs": [
        {
          "internalType": "uint256",
          "name": "uid",
          "type": "uint256"
        },
        {
          "internalType": "string",
          "name": "BirthHash",
          "type": "string"
        },
        {
          "internalType": "string",
          "name": "DeathHash",
          "type": "string"
        },
        {
          "internalType": "uint256",
          "name": "length",
          "type": "uint256"
        }
      ],
      "payable": false,
      "stateMutability": "view",
      "type": "function"
    },
    {
      "constant": true,
      "inputs": [
        {
          "internalType": "uint256",
          "name": "",
          "type": "uint256"
        }
      ],
      "name": "isPresent",
      "outputs": [
        {
          "internalType": "bool",
          "name": "",
          "type": "bool"
        }
      ],
      "payable": false,
      "stateMutability": "view",
      "type": "function"
    },
    {
      "constant": false,
      "inputs": [
        {
          "internalType": "uint256",
          "name": "uid",
          "type": "uint256"
        }
      ],
      "name": "CheckPresence",
      "outputs": [
        {
          "internalType": "bool",
          "name": "",
          "type": "bool"
        }
      ],
      "payable": false,
      "stateMutability": "nonpayable",
      "type": "function"
    },
    {
      "constant": false,
      "inputs": [
        {
          "internalType": "address",
          "name": "muncipalityadrress",
          "type": "address"
        },
        {
          "internalType": "uint256",
          "name": "uid",
          "type": "uint256"
        }
      ],
      "name": "AddMuncipality",
      "outputs": [
        {
          "internalType": "bool",
          "name": "",
          "type": "bool"
        }
      ],
      "payable": false,
      "stateMutability": "nonpayable",
      "type": "function"
    },
    {
      "constant": false,
      "inputs": [
        {
          "internalType": "uint256",
          "name": "munId",
          "type": "uint256"
        },
        {
          "internalType": "uint256",
          "name": "uid",
          "type": "uint256"
        },
        {
          "internalType": "string",
          "name": "_BirthHash",
          "type": "string"
        }
      ],
      "name": "AddUserBirthHash",
      "outputs": [
        {
          "internalType": "bool",
          "name": "",
          "type": "bool"
        }
      ],
      "payable": false,
      "stateMutability": "nonpayable",
      "type": "function"
    },
    {
      "constant": false,
      "inputs": [
        {
          "internalType": "uint256",
          "name": "munId",
          "type": "uint256"
        },
        {
          "internalType": "uint256",
          "name": "uid",
          "type": "uint256"
        },
        {
          "internalType": "string",
          "name": "_DeathHash",
          "type": "string"
        }
      ],
      "name": "AddDeathhash",
      "outputs": [
        {
          "internalType": "bool",
          "name": "",
          "type": "bool"
        }
      ],
      "payable": false,
      "stateMutability": "nonpayable",
      "type": "function"
    },
    {
      "constant": true,
      "inputs": [
        {
          "internalType": "uint256",
          "name": "uid",
          "type": "uint256"
        }
      ],
      "name": "getBirthCertificate",
      "outputs": [
        {
          "internalType": "string",
          "name": "",
          "type": "string"
        }
      ],
      "payable": false,
      "stateMutability": "view",
      "type": "function"
    },
    {
      "constant": true,
      "inputs": [
        {
          "internalType": "uint256",
          "name": "uid",
          "type": "uint256"
        }
      ],
      "name": "getDeathCertificate",
      "outputs": [
        {
          "internalType": "string",
          "name": "",
          "type": "string"
        }
      ],
      "payable": false,
      "stateMutability": "view",
      "type": "function"
    },
    {
      "constant": true,
      "inputs": [],
      "name": "getAllData",
      "outputs": [
        {
          "components": [
            {
              "internalType": "uint256",
              "name": "uid",
              "type": "uint256"
            },
            {
              "internalType": "string",
              "name": "BirthHash",
              "type": "string"
            },
            {
              "internalType": "string",
              "name": "DeathHash",
              "type": "string"
            },
            {
              "internalType": "uint256",
              "name": "length",
              "type": "uint256"
            }
          ],
          "internalType": "struct Muncipality.UserData[]",
          "name": "",
          "type": "tuple[]"
        }
      ],
      "payable": false,
      "stateMutability": "view",
      "type": "function"
    }
  ],
  "bytecode": "0x60806040526000600455600060055534801561001a57600080fd5b50600080546001600160a01b03191633179055610ffd8061003c6000396000f3fe608060405234801561001057600080fd5b50600436106100b45760003560e01c806348b326fb1161007157806348b326fb146101555780637a05981314610175578063b4a99a4e1461017d578063e8b6565414610192578063e8cdd200146101a5578063eeeffa7e146101b8576100b4565b80631cae92a3146100b95780632d10fa28146100e257806340373fe4146100f75780634446a04f1461010c578063445256f31461011f57806345a020a514610132575b600080fd5b6100cc6100c7366004610c1b565b6101da565b6040516100d99190610e5d565b60405180910390f35b6100ea6102f9565b6040516100d99190610e4c565b6100ff6104a1565b6040516100d99190610e7c565b6100cc61011a366004610c7b565b6104a7565b6100cc61012d366004610c55565b6105b6565b610145610140366004610c55565b6105e3565b6040516100d99493929190610e8a565b610168610163366004610c55565b610744565b6040516100d99190610e6b565b6100ff6108cb565b6101856108d1565b6040516100d99190610e16565b6100cc6101a0366004610c7b565b6108e0565b6100cc6101b3366004610c55565b610a78565b6101cb6101c6366004610c55565b610a8d565b6040516100d993929190610e24565b600080546001600160a01b031633146101f257600080fd5b6101fb826105b6565b6102ef57610207610ac7565b5050604080516060810182526001600160a01b038481168252602080830185815260048054858701908152600180548082018255600082815297517fb10e2d527612073b26eecdfd717e6a320cf44b4afac2b0732d9fcbe2b7fa0cf6600392830290810180546001600160a01b031916929099169190911790975593517fb10e2d527612073b26eecdfd717e6a320cf44b4afac2b0732d9fcbe2b7fa0cf787015590517fb10e2d527612073b26eecdfd717e6a320cf44b4afac2b0732d9fcbe2b7fa0cf8909501949094558054840190558584529052919020805460ff1916821790556102f3565b5060005b92915050565b60606002805480602002602001604051908101604052809291908181526020016000905b82821015610497578382906000526020600020906004020160405180608001604052908160008201548152602001600182018054600181600116156101000203166002900480601f0160208091040260200160405190810160405280929190818152602001828054600181600116156101000203166002900480156103e35780601f106103b8576101008083540402835291602001916103e3565b820191906000526020600020905b8154815290600101906020018083116103c657829003601f168201915b5050509183525050600282810180546040805160206001841615610100026000190190931694909404601f810183900483028501830190915280845293810193908301828280156104755780601f1061044a57610100808354040283529160200191610475565b820191906000526020600020905b81548152906001019060200180831161045857829003601f168201915b505050505081526020016003820154815250508152602001906001019061031d565b5050505090505b90565b60055481565b60006104b2846105b6565b156105ab576104bf610af1565b50604080516080810182528481526020808201858152835180850185526001808252600160fd1b828501529484015260055460608401526002805494850180825560009190915283517f405787fa12a823e0f2b7631cc41b3ba8828b3321ca811111fa75cd3aa3bb5ace60049096029586019081559151805194959194869461056c937f405787fa12a823e0f2b7631cc41b3ba8828b3321ca811111fa75cd3aa3bb5acf01920190610b19565b5060408201518051610588916002840191602090910190610b19565b5060609190910151600390910155505060058054600190810190915590506105af565b5060005b9392505050565b60008181526003602052604081205460ff161515600114156105da575060016105de565b5060005b919050565b600281815481106105f057fe5b9060005260206000209060040201600091509050806000015490806001018054600181600116156101000203166002900480601f0160208091040260200160405190810160405280929190818152602001828054600181600116156101000203166002900480156106a25780601f10610677576101008083540402835291602001916106a2565b820191906000526020600020905b81548152906001019060200180831161068557829003601f168201915b50505060028085018054604080516020601f60001961010060018716150201909416959095049283018590048502810185019091528181529596959450909250908301828280156107345780601f1061070957610100808354040283529160200191610734565b820191906000526020600020905b81548152906001019060200180831161071757829003601f168201915b5050505050908060030154905084565b61074c610af1565b610754610af1565b6002838154811061076157fe5b906000526020600020906004020160405180608001604052908160008201548152602001600182018054600181600116156101000203166002900480601f01602080910402602001604051908101604052809291908181526020018280546001816001161561010002031660029004801561081d5780601f106107f25761010080835404028352916020019161081d565b820191906000526020600020905b81548152906001019060200180831161080057829003601f168201915b5050509183525050600282810180546040805160206001841615610100026000190190931694909404601f810183900483028501830190915280845293810193908301828280156108af5780601f10610884576101008083540402835291602001916108af565b820191906000526020600020905b81548152906001019060200180831161089257829003601f168201915b5050509183525050600391909101546020909101529392505050565b60045481565b6000546001600160a01b031681565b60006108eb846105b6565b156105ab576108f8610af1565b6002848154811061090557fe5b906000526020600020906004020160405180608001604052908160008201548152602001600182018054600181600116156101000203166002900480601f0160208091040260200160405190810160405280929190818152602001828054600181600116156101000203166002900480156109c15780601f10610996576101008083540402835291602001916109c1565b820191906000526020600020905b8154815290600101906020018083116109a457829003601f168201915b5050509183525050600282810180546040805160206001841615610100026000190190931694909404601f81018390048302850183019091528084529381019390830182828015610a535780601f10610a2857610100808354040283529160200191610a53565b820191906000526020600020905b815481529060010190602001808311610a3657829003601f168201915b50505091835250506003919091015460209091015260400183905250600190506105af565b60036020526000908152604090205460ff1681565b60018181548110610a9a57fe5b60009182526020909120600390910201805460018201546002909201546001600160a01b03909116925083565b604051806060016040528060006001600160a01b0316815260200160008152602001600081525090565b6040518060800160405280600081526020016060815260200160608152602001600081525090565b828054600181600116156101000203166002900490600052602060002090601f016020900481019282601f10610b5a57805160ff1916838001178555610b87565b82800160010185558215610b87579182015b82811115610b87578251825591602001919060010190610b6c565b50610b93929150610b97565b5090565b61049e91905b80821115610b935760008155600101610b9d565b80356102f381610f9a565b600082601f830112610bcd57600080fd5b8135610be0610bdb82610efd565b610ed6565b91508082526020830160208301858383011115610bfc57600080fd5b610c07838284610f54565b50505092915050565b80356102f381610fb1565b60008060408385031215610c2e57600080fd5b6000610c3a8585610bb1565b9250506020610c4b85828601610c10565b9150509250929050565b600060208284031215610c6757600080fd5b6000610c738484610c10565b949350505050565b600080600060608486031215610c9057600080fd5b6000610c9c8686610c10565b9350506020610cad86828701610c10565b925050604084013567ffffffffffffffff811115610cca57600080fd5b610cd686828701610bbc565b9150509250925092565b60006105af8383610daa565b610cf581610f38565b82525050565b6000610d0682610f2b565b610d108185610f2f565b935083602082028501610d2285610f25565b8060005b85811015610d5c5784840389528151610d3f8582610ce0565b9450610d4a83610f25565b60209a909a0199925050600101610d26565b5091979650505050505050565b610cf581610f43565b6000610d7d82610f2b565b610d878185610f2f565b9350610d97818560208601610f60565b610da081610f90565b9093019392505050565b80516000906080840190610dbe8582610e0d565b5060208301518482036020860152610dd68282610d72565b91505060408301518482036040860152610df08282610d72565b9150506060830151610e056060860182610e0d565b509392505050565b610cf58161049e565b602081016102f38284610cec565b60608101610e328286610cec565b610e3f6020830185610e0d565b610c736040830184610e0d565b602080825281016105af8184610cfb565b602081016102f38284610d69565b602080825281016105af8184610daa565b602081016102f38284610e0d565b60808101610e988287610e0d565b8181036020830152610eaa8186610d72565b90508181036040830152610ebe8185610d72565b9050610ecd6060830184610e0d565b95945050505050565b60405181810167ffffffffffffffff81118282101715610ef557600080fd5b604052919050565b600067ffffffffffffffff821115610f1457600080fd5b506020601f91909101601f19160190565b60200190565b5190565b90815260200190565b60006102f382610f48565b151590565b6001600160a01b031690565b82818337506000910152565b60005b83811015610f7b578181015183820152602001610f63565b83811115610f8a576000848401525b50505050565b601f01601f191690565b610fa381610f38565b8114610fae57600080fd5b50565b610fa38161049e56fea365627a7a723158202db4d7ae97b85d236a58b72d172d26eb4528ae66ea679722e8797ce9a85ac7046c6578706572696d656e74616cf564736f6c63430005100040",
  "source": "// SPDX-License-Identifier: MIT\r\npragma experimental ABIEncoderV2;\r\npragma solidity >=0.5.8;\r\n \r\ncontract Muncipality{\r\n    address public Owner;\r\n    MuncipalityData[] public allMun;\r\n    UserData[] public allUser;\r\n    struct MuncipalityData{\r\n        address muncipalityadrress;\r\n        uint uid;\r\n        uint length;\r\n    }\r\n    struct UserData{\r\n        uint uid;\r\n        string BirthHash;\r\n        string DeathHash;\r\n        uint length;\r\n    }\r\n\r\n    mapping (uint=>bool) public isPresent;\r\n    uint public MuncipalityLength=0;\r\n    uint public UserLength=0;\r\n    constructor() public{\r\n        Owner=msg.sender;\r\n    }\r\n    modifier onlyOwner{\r\n        require(msg.sender==Owner);\r\n        _;\r\n    }\r\n    function CheckPresence(uint uid) public returns(bool){\r\n        if(isPresent[uid]==true){\r\n            return true;\r\n        }\r\n        return false;\r\n    }\r\n    function AddMuncipality(address muncipalityadrress,uint uid) public onlyOwner returns (bool){\r\n        if(!CheckPresence(uid)){\r\n        MuncipalityData memory NewMuncipality=MuncipalityData({\r\n            muncipalityadrress:muncipalityadrress,\r\n            uid:uid,\r\n            length:MuncipalityLength\r\n        });\r\n        allMun.push(NewMuncipality);\r\n        MuncipalityLength+=1;\r\n        isPresent[uid]=true;\r\n        return true;\r\n\r\n        }\r\n        else{\r\n            return false;\r\n        }\r\n    }\r\n    function AddUserBirthHash(uint munId,uint uid,string memory _BirthHash) public returns(bool){\r\n        if(CheckPresence(munId)){\r\n            UserData memory newUser=UserData({\r\n                uid:uid,\r\n                BirthHash:_BirthHash,\r\n                DeathHash:' ',\r\n                length:UserLength\r\n            });\r\n            allUser.push(newUser);\r\n            UserLength+=1;\r\n            return true;\r\n\r\n        }\r\n        else{\r\n            return false;\r\n        }\r\n    } \r\n    function AddDeathhash(uint munId,uint uid,string memory _DeathHash) public returns(bool){\r\n        if(CheckPresence(munId)){\r\n            UserData memory deadUser=allUser[uid];\r\n            deadUser.DeathHash=_DeathHash;\r\n            return true;\r\n        }\r\n        else{\r\n            return false;\r\n        }\r\n    }\r\n    function getBirthCertificate(uint uid) public returns(UserData memory){\r\n        UserData memory foundUser=allUser[uid];\r\n        return foundUser;\r\n    }\r\n    function getAllData() public returns(UserData[] memory){\r\n        return allUser;\r\n    }\r\n\r\n}",
  "sourcePath": "C:/Users/hpp/Documents/Project_SmartContract/Pramanit/Project_SmartContract/contracts/Muncipality.sol",
  "compiler": {
    "name": "solc",
    "version": "0.5.16+commit.9c3226ce.Emscripten.clang"
  },
  "schemaVersion": "3.4.1",
  "updatedAt": "2022-05-30T14:26:01.729Z",
  "networkType": "ethereum",
  "devdoc": {
    "methods": {}
  },
  "userdoc": {
    "methods": {}
  }
}