{
  "contractName": "Muncipality",
  "abi": [
    {
      "inputs": [],
      "payable": false,
      "stateMutability": "nonpayable",
      "type": "constructor"
    },
    {
      "constant": true,
      "inputs": [],
      "name": "MuncipalityLength",
      "outputs": [
        {
          "internalType": "uint256",
          "name": "",
          "type": "uint256"
        }
      ],
      "payable": false,
      "stateMutability": "view",
      "type": "function"
    },
    {
      "constant": true,
      "inputs": [],
      "name": "RealOG",
      "outputs": [
        {
          "internalType": "address",
          "name": "",
          "type": "address"
        }
      ],
      "payable": false,
      "stateMutability": "view",
      "type": "function"
    },
    {
      "constant": true,
      "inputs": [],
      "name": "UserLength",
      "outputs": [
        {
          "internalType": "uint256",
          "name": "",
          "type": "uint256"
        }
      ],
      "payable": false,
      "stateMutability": "view",
      "type": "function"
    },
    {
      "constant": true,
      "inputs": [
        {
          "internalType": "uint256",
          "name": "",
          "type": "uint256"
        }
      ],
      "name": "allMun",
      "outputs": [
        {
          "internalType": "address",
          "name": "muncipalityadrress",
          "type": "address"
        },
        {
          "internalType": "uint256",
          "name": "uid",
          "type": "uint256"
        },
        {
          "internalType": "uint256",
          "name": "length",
          "type": "uint256"
        }
      ],
      "payable": false,
      "stateMutability": "view",
      "type": "function"
    },
    {
      "constant": true,
      "inputs": [
        {
          "internalType": "uint256",
          "name": "",
          "type": "uint256"
        }
      ],
      "name": "allUser",
      "outputs": [
        {
          "internalType": "uint256",
          "name": "uid",
          "type": "uint256"
        },
        {
          "internalType": "string",
          "name": "BirthHash",
          "type": "string"
        },
        {
          "internalType": "string",
          "name": "DeathHash",
          "type": "string"
        },
        {
          "internalType": "uint256",
          "name": "length",
          "type": "uint256"
        }
      ],
      "payable": false,
      "stateMutability": "view",
      "type": "function"
    },
    {
      "constant": true,
      "inputs": [
        {
          "internalType": "uint256",
          "name": "",
          "type": "uint256"
        }
      ],
      "name": "isPresent",
      "outputs": [
        {
          "internalType": "bool",
          "name": "",
          "type": "bool"
        }
      ],
      "payable": false,
      "stateMutability": "view",
      "type": "function"
    },
    {
      "constant": false,
      "inputs": [
        {
          "internalType": "uint256",
          "name": "uid",
          "type": "uint256"
        }
      ],
      "name": "CheckPresence",
      "outputs": [
        {
          "internalType": "bool",
          "name": "",
          "type": "bool"
        }
      ],
      "payable": false,
      "stateMutability": "nonpayable",
      "type": "function"
    },
    {
      "constant": false,
      "inputs": [
        {
          "internalType": "address",
          "name": "muncipalityadrress",
          "type": "address"
        },
        {
          "internalType": "uint256",
          "name": "uid",
          "type": "uint256"
        }
      ],
      "name": "AddMuncipality",
      "outputs": [
        {
          "internalType": "bool",
          "name": "",
          "type": "bool"
        }
      ],
      "payable": false,
      "stateMutability": "nonpayable",
      "type": "function"
    },
    {
      "constant": false,
      "inputs": [
        {
          "internalType": "uint256",
          "name": "munId",
          "type": "uint256"
        },
        {
          "internalType": "uint256",
          "name": "uid",
          "type": "uint256"
        },
        {
          "internalType": "string",
          "name": "_BirthHash",
          "type": "string"
        }
      ],
      "name": "AddUserBirthHash",
      "outputs": [
        {
          "internalType": "bool",
          "name": "",
          "type": "bool"
        }
      ],
      "payable": false,
      "stateMutability": "nonpayable",
      "type": "function"
    },
    {
      "constant": false,
      "inputs": [
        {
          "internalType": "uint256",
          "name": "munId",
          "type": "uint256"
        },
        {
          "internalType": "uint256",
          "name": "uid",
          "type": "uint256"
        },
        {
          "internalType": "string",
          "name": "_DeathHash",
          "type": "string"
        }
      ],
      "name": "AddDeathhash",
      "outputs": [
        {
          "internalType": "bool",
          "name": "",
          "type": "bool"
        }
      ],
      "payable": false,
      "stateMutability": "nonpayable",
      "type": "function"
    },
    {
      "constant": false,
      "inputs": [
        {
          "internalType": "uint256",
          "name": "uid",
          "type": "uint256"
        }
      ],
      "name": "getBirthCertificate",
      "outputs": [
        {
          "components": [
            {
              "internalType": "uint256",
              "name": "uid",
              "type": "uint256"
            },
            {
              "internalType": "string",
              "name": "BirthHash",
              "type": "string"
            },
            {
              "internalType": "string",
              "name": "DeathHash",
              "type": "string"
            },
            {
              "internalType": "uint256",
              "name": "length",
              "type": "uint256"
            }
          ],
          "internalType": "struct Muncipality.UserDara",
          "name": "",
          "type": "tuple"
        }
      ],
      "payable": false,
      "stateMutability": "nonpayable",
      "type": "function"
    },
    {
      "constant": false,
      "inputs": [],
      "name": "getAllData",
      "outputs": [
        {
          "components": [
            {
              "internalType": "uint256",
              "name": "uid",
              "type": "uint256"
            },
            {
              "internalType": "string",
              "name": "BirthHash",
              "type": "string"
            },
            {
              "internalType": "string",
              "name": "DeathHash",
              "type": "string"
            },
            {
              "internalType": "uint256",
              "name": "length",
              "type": "uint256"
            }
          ],
          "internalType": "struct Muncipality.UserDara[]",
          "name": "",
          "type": "tuple[]"
        }
      ],
      "payable": false,
      "stateMutability": "nonpayable",
      "type": "function"
    }
  ],
  "bytecode": "0x60806040526000600455600060055534801561001a57600080fd5b50600080546001600160a01b03191633179055610feb8061003c6000396000f3fe608060405234801561001057600080fd5b50600436106100b45760003560e01c806348b326fb1161007157806348b326fb146101555780636e10f4a4146101755780637a0598131461018a578063e8b6565414610192578063e8cdd200146101a5578063eeeffa7e146101b8576100b4565b80631cae92a3146100b95780632d10fa28146100e257806340373fe4146100f75780634446a04f1461010c578063445256f31461011f57806345a020a514610132575b600080fd5b6100cc6100c7366004610c09565b6101da565b6040516100d99190610e4b565b60405180910390f35b6100ea6102f2565b6040516100d99190610e3a565b6100ff61049a565b6040516100d99190610e6a565b6100cc61011a366004610c69565b6104a0565b6100cc61012d366004610c43565b6105a4565b610145610140366004610c43565b6105d1565b6040516100d99493929190610e78565b610168610163366004610c43565b610732565b6040516100d99190610e59565b61017d6108b9565b6040516100d99190610e04565b6100ff6108c8565b6100cc6101a0366004610c69565b6108ce565b6100cc6101b3366004610c43565b610a66565b6101cb6101c6366004610c43565b610a7b565b6040516100d993929190610e12565b600080546001600160a01b031633146101f257600080fd5b6101fb826105a4565b6102e857610207610ab5565b5050604080516060810182526001600160a01b0384811682526020808301858152600454848601908152600180548082018255600082815296517fb10e2d527612073b26eecdfd717e6a320cf44b4afac2b0732d9fcbe2b7fa0cf6600392830290810180546001600160a01b031916929098169190911790965592517fb10e2d527612073b26eecdfd717e6a320cf44b4afac2b0732d9fcbe2b7fa0cf786015590517fb10e2d527612073b26eecdfd717e6a320cf44b4afac2b0732d9fcbe2b7fa0cf8909401939093558584529052919020805460ff1916821790556102ec565b5060005b92915050565b60606002805480602002602001604051908101604052809291908181526020016000905b82821015610490578382906000526020600020906004020160405180608001604052908160008201548152602001600182018054600181600116156101000203166002900480601f0160208091040260200160405190810160405280929190818152602001828054600181600116156101000203166002900480156103dc5780601f106103b1576101008083540402835291602001916103dc565b820191906000526020600020905b8154815290600101906020018083116103bf57829003601f168201915b5050509183525050600282810180546040805160206001841615610100026000190190931694909404601f8101839004830285018301909152808452938101939083018282801561046e5780601f106104435761010080835404028352916020019161046e565b820191906000526020600020905b81548152906001019060200180831161045157829003601f168201915b5050505050815260200160038201548152505081526020019060010190610316565b5050505090505b90565b60055481565b60006104ab846105a4565b15610599576104b8610adf565b50604080516080810182528481526020808201858152835180850185526001808252600160fd1b828501529484015260055460608401526002805494850180825560009190915283517f405787fa12a823e0f2b7631cc41b3ba8828b3321ca811111fa75cd3aa3bb5ace600490960295860190815591518051949591948694610565937f405787fa12a823e0f2b7631cc41b3ba8828b3321ca811111fa75cd3aa3bb5acf01920190610b07565b5060408201518051610581916002840191602090910190610b07565b5060608201518160030155505050600191505061059d565b5060005b9392505050565b60008181526003602052604081205460ff161515600114156105c8575060016105cc565b5060005b919050565b600281815481106105de57fe5b9060005260206000209060040201600091509050806000015490806001018054600181600116156101000203166002900480601f0160208091040260200160405190810160405280929190818152602001828054600181600116156101000203166002900480156106905780601f1061066557610100808354040283529160200191610690565b820191906000526020600020905b81548152906001019060200180831161067357829003601f168201915b50505060028085018054604080516020601f60001961010060018716150201909416959095049283018590048502810185019091528181529596959450909250908301828280156107225780601f106106f757610100808354040283529160200191610722565b820191906000526020600020905b81548152906001019060200180831161070557829003601f168201915b5050505050908060030154905084565b61073a610adf565b610742610adf565b6002838154811061074f57fe5b906000526020600020906004020160405180608001604052908160008201548152602001600182018054600181600116156101000203166002900480601f01602080910402602001604051908101604052809291908181526020018280546001816001161561010002031660029004801561080b5780601f106107e05761010080835404028352916020019161080b565b820191906000526020600020905b8154815290600101906020018083116107ee57829003601f168201915b5050509183525050600282810180546040805160206001841615610100026000190190931694909404601f8101839004830285018301909152808452938101939083018282801561089d5780601f106108725761010080835404028352916020019161089d565b820191906000526020600020905b81548152906001019060200180831161088057829003601f168201915b5050509183525050600391909101546020909101529392505050565b6000546001600160a01b031681565b60045481565b60006108d9846105a4565b15610599576108e6610adf565b600284815481106108f357fe5b906000526020600020906004020160405180608001604052908160008201548152602001600182018054600181600116156101000203166002900480601f0160208091040260200160405190810160405280929190818152602001828054600181600116156101000203166002900480156109af5780601f10610984576101008083540402835291602001916109af565b820191906000526020600020905b81548152906001019060200180831161099257829003601f168201915b5050509183525050600282810180546040805160206001841615610100026000190190931694909404601f81018390048302850183019091528084529381019390830182828015610a415780601f10610a1657610100808354040283529160200191610a41565b820191906000526020600020905b815481529060010190602001808311610a2457829003601f168201915b505050918352505060039190910154602090910152604001839052506001905061059d565b60036020526000908152604090205460ff1681565b60018181548110610a8857fe5b60009182526020909120600390910201805460018201546002909201546001600160a01b03909116925083565b604051806060016040528060006001600160a01b0316815260200160008152602001600081525090565b6040518060800160405280600081526020016060815260200160608152602001600081525090565b828054600181600116156101000203166002900490600052602060002090601f016020900481019282601f10610b4857805160ff1916838001178555610b75565b82800160010185558215610b75579182015b82811115610b75578251825591602001919060010190610b5a565b50610b81929150610b85565b5090565b61049791905b80821115610b815760008155600101610b8b565b80356102ec81610f88565b600082601f830112610bbb57600080fd5b8135610bce610bc982610eeb565b610ec4565b91508082526020830160208301858383011115610bea57600080fd5b610bf5838284610f42565b50505092915050565b80356102ec81610f9f565b60008060408385031215610c1c57600080fd5b6000610c288585610b9f565b9250506020610c3985828601610bfe565b9150509250929050565b600060208284031215610c5557600080fd5b6000610c618484610bfe565b949350505050565b600080600060608486031215610c7e57600080fd5b6000610c8a8686610bfe565b9350506020610c9b86828701610bfe565b925050604084013567ffffffffffffffff811115610cb857600080fd5b610cc486828701610baa565b9150509250925092565b600061059d8383610d98565b610ce381610f26565b82525050565b6000610cf482610f19565b610cfe8185610f1d565b935083602082028501610d1085610f13565b8060005b85811015610d4a5784840389528151610d2d8582610cce565b9450610d3883610f13565b60209a909a0199925050600101610d14565b5091979650505050505050565b610ce381610f31565b6000610d6b82610f19565b610d758185610f1d565b9350610d85818560208601610f4e565b610d8e81610f7e565b9093019392505050565b80516000906080840190610dac8582610dfb565b5060208301518482036020860152610dc48282610d60565b91505060408301518482036040860152610dde8282610d60565b9150506060830151610df36060860182610dfb565b509392505050565b610ce381610497565b602081016102ec8284610cda565b60608101610e208286610cda565b610e2d6020830185610dfb565b610c616040830184610dfb565b6020808252810161059d8184610ce9565b602081016102ec8284610d57565b6020808252810161059d8184610d98565b602081016102ec8284610dfb565b60808101610e868287610dfb565b8181036020830152610e988186610d60565b90508181036040830152610eac8185610d60565b9050610ebb6060830184610dfb565b95945050505050565b60405181810167ffffffffffffffff81118282101715610ee357600080fd5b604052919050565b600067ffffffffffffffff821115610f0257600080fd5b506020601f91909101601f19160190565b60200190565b5190565b90815260200190565b60006102ec82610f36565b151590565b6001600160a01b031690565b82818337506000910152565b60005b83811015610f69578181015183820152602001610f51565b83811115610f78576000848401525b50505050565b601f01601f191690565b610f9181610f26565b8114610f9c57600080fd5b50565b610f918161049756fea365627a7a72315820ee6d06a00f8364b6a947d55977242f3a48c46684ce3aef17713b405e1251b6e56c6578706572696d656e74616cf564736f6c63430005100040",
  "source": "// SPDX-License-Identifier: MIT\r\npragma experimental ABIEncoderV2;\r\npragma solidity >=0.5.8;\r\n \r\ncontract Muncipality{\r\n    address public RealOG;\r\n    MuncipalityData[] public allMun;\r\n    UserDara[] public allUser;\r\n    struct MuncipalityData{\r\n        address muncipalityadrress;\r\n        uint uid;\r\n        uint length;\r\n    }\r\n    struct UserDara{\r\n        uint uid;\r\n        string BirthHash;\r\n        string DeathHash;\r\n        uint length;\r\n    }\r\n\r\n    mapping (uint=>bool) public isPresent;\r\n    uint public MuncipalityLength=0;\r\n    uint public UserLength=0;\r\n    constructor() public{\r\n        RealOG=msg.sender;\r\n    }\r\n    modifier onlyOwner{\r\n        require(msg.sender==RealOG);\r\n        _;\r\n    }\r\n    function CheckPresence(uint uid) public returns(bool){\r\n        if(isPresent[uid]==true){\r\n            return true;\r\n        }\r\n        return false;\r\n    }\r\n    function AddMuncipality(address muncipalityadrress,uint uid) public onlyOwner returns (bool){\r\n        if(!CheckPresence(uid)){\r\n        MuncipalityData memory NewMuncipality=MuncipalityData({\r\n            muncipalityadrress:muncipalityadrress,\r\n            uid:uid,\r\n            length:MuncipalityLength\r\n        });\r\n        allMun.push(NewMuncipality);\r\n        isPresent[uid]=true;\r\n        return true;\r\n\r\n        }\r\n        else{\r\n            return false;\r\n        }\r\n    }\r\n    function AddUserBirthHash(uint munId,uint uid,string memory _BirthHash) public returns(bool){\r\n        if(CheckPresence(munId)){\r\n            UserDara memory newUser=UserDara({\r\n                uid:uid,\r\n                BirthHash:_BirthHash,\r\n                DeathHash:' ',\r\n                length:UserLength\r\n            });\r\n            allUser.push(newUser);\r\n\r\n            return true;\r\n\r\n        }\r\n        else{\r\n            return false;\r\n        }\r\n    } \r\n    function AddDeathhash(uint munId,uint uid,string memory _DeathHash) public returns(bool){\r\n        if(CheckPresence(munId)){\r\n            UserDara memory deadUser=allUser[uid];\r\n            deadUser.DeathHash=_DeathHash;\r\n            return true;\r\n        }\r\n        else{\r\n            return false;\r\n        }\r\n    }\r\n    function getBirthCertificate(uint uid) public returns(UserDara memory){\r\n        UserDara memory foundUser=allUser[uid];\r\n        return foundUser;\r\n    }\r\n    function getAllData() public returns(UserDara[] memory){\r\n        return allUser;\r\n    }\r\n\r\n}",
  "sourcePath": "C:/Users/hpp/Documents/Project_SmartContract/pramanit/Project_SmartContract/contracts/Muncipality.sol",
  "compiler": {
    "name": "solc",
    "version": "0.5.16+commit.9c3226ce.Emscripten.clang"
  },
  "schemaVersion": "3.4.1",
  "updatedAt": "2022-04-12T05:46:53.869Z",
  "devdoc": {
    "methods": {}
  },
  "userdoc": {
    "methods": {}
  }
}