{
  "contractName": "Muncipality",
  "abi": [
    {
      "inputs": [],
      "payable": false,
      "stateMutability": "nonpayable",
      "type": "constructor"
    },
    {
      "constant": true,
      "inputs": [],
      "name": "MuncipalityLength",
      "outputs": [
        {
          "internalType": "uint256",
          "name": "",
          "type": "uint256"
        }
      ],
      "payable": false,
      "stateMutability": "view",
      "type": "function"
    },
    {
      "constant": true,
      "inputs": [],
      "name": "Owner",
      "outputs": [
        {
          "internalType": "address",
          "name": "",
          "type": "address"
        }
      ],
      "payable": false,
      "stateMutability": "view",
      "type": "function"
    },
    {
      "constant": true,
      "inputs": [],
      "name": "UserLength",
      "outputs": [
        {
          "internalType": "uint256",
          "name": "",
          "type": "uint256"
        }
      ],
      "payable": false,
      "stateMutability": "view",
      "type": "function"
    },
    {
      "constant": true,
      "inputs": [
        {
          "internalType": "uint256",
          "name": "",
          "type": "uint256"
        }
      ],
      "name": "allMun",
      "outputs": [
        {
          "internalType": "address",
          "name": "muncipalityadrress",
          "type": "address"
        },
        {
          "internalType": "uint256",
          "name": "uid",
          "type": "uint256"
        },
        {
          "internalType": "uint256",
          "name": "length",
          "type": "uint256"
        }
      ],
      "payable": false,
      "stateMutability": "view",
      "type": "function"
    },
    {
      "constant": true,
      "inputs": [
        {
          "internalType": "uint256",
          "name": "",
          "type": "uint256"
        }
      ],
      "name": "allUser",
      "outputs": [
        {
          "internalType": "uint256",
          "name": "uid",
          "type": "uint256"
        },
        {
          "internalType": "string",
          "name": "BirthHash",
          "type": "string"
        },
        {
          "internalType": "string",
          "name": "DeathHash",
          "type": "string"
        },
        {
          "internalType": "uint256",
          "name": "length",
          "type": "uint256"
        }
      ],
      "payable": false,
      "stateMutability": "view",
      "type": "function"
    },
    {
      "constant": true,
      "inputs": [
        {
          "internalType": "uint256",
          "name": "",
          "type": "uint256"
        }
      ],
      "name": "isPresent",
      "outputs": [
        {
          "internalType": "bool",
          "name": "",
          "type": "bool"
        }
      ],
      "payable": false,
      "stateMutability": "view",
      "type": "function"
    },
    {
      "constant": false,
      "inputs": [
        {
          "internalType": "uint256",
          "name": "uid",
          "type": "uint256"
        }
      ],
      "name": "CheckPresence",
      "outputs": [
        {
          "internalType": "bool",
          "name": "",
          "type": "bool"
        }
      ],
      "payable": false,
      "stateMutability": "nonpayable",
      "type": "function"
    },
    {
      "constant": false,
      "inputs": [
        {
          "internalType": "address",
          "name": "muncipalityadrress",
          "type": "address"
        },
        {
          "internalType": "uint256",
          "name": "uid",
          "type": "uint256"
        }
      ],
      "name": "AddMuncipality",
      "outputs": [
        {
          "internalType": "bool",
          "name": "",
          "type": "bool"
        }
      ],
      "payable": false,
      "stateMutability": "nonpayable",
      "type": "function"
    },
    {
      "constant": false,
      "inputs": [
        {
          "internalType": "uint256",
          "name": "munId",
          "type": "uint256"
        },
        {
          "internalType": "uint256",
          "name": "uid",
          "type": "uint256"
        },
        {
          "internalType": "string",
          "name": "_BirthHash",
          "type": "string"
        }
      ],
      "name": "AddUserBirthHash",
      "outputs": [
        {
          "internalType": "bool",
          "name": "",
          "type": "bool"
        }
      ],
      "payable": false,
      "stateMutability": "nonpayable",
      "type": "function"
    },
    {
      "constant": false,
      "inputs": [
        {
          "internalType": "uint256",
          "name": "munId",
          "type": "uint256"
        },
        {
          "internalType": "uint256",
          "name": "uid",
          "type": "uint256"
        },
        {
          "internalType": "string",
          "name": "_DeathHash",
          "type": "string"
        }
      ],
      "name": "AddDeathhash",
      "outputs": [
        {
          "internalType": "bool",
          "name": "",
          "type": "bool"
        }
      ],
      "payable": false,
      "stateMutability": "nonpayable",
      "type": "function"
    },
    {
      "constant": true,
      "inputs": [
        {
          "internalType": "uint256",
          "name": "uid",
          "type": "uint256"
        }
      ],
      "name": "getBirthCertificate",
      "outputs": [
        {
          "internalType": "string",
          "name": "",
          "type": "string"
        }
      ],
      "payable": false,
      "stateMutability": "view",
      "type": "function"
    },
    {
      "constant": true,
      "inputs": [
        {
          "internalType": "uint256",
          "name": "uid",
          "type": "uint256"
        }
      ],
      "name": "getDeathCertificate",
      "outputs": [
        {
          "internalType": "string",
          "name": "",
          "type": "string"
        }
      ],
      "payable": false,
      "stateMutability": "view",
      "type": "function"
    },
    {
      "constant": true,
      "inputs": [],
      "name": "getAllData",
      "outputs": [
        {
          "components": [
            {
              "internalType": "uint256",
              "name": "uid",
              "type": "uint256"
            },
            {
              "internalType": "string",
              "name": "BirthHash",
              "type": "string"
            },
            {
              "internalType": "string",
              "name": "DeathHash",
              "type": "string"
            },
            {
              "internalType": "uint256",
              "name": "length",
              "type": "uint256"
            }
          ],
          "internalType": "struct Muncipality.UserData[]",
          "name": "",
          "type": "tuple[]"
        }
      ],
      "payable": false,
      "stateMutability": "view",
      "type": "function"
    }
  ],
  "bytecode": "0x60806040526000600455600060055534801561001a57600080fd5b50600080546001600160a01b031916331790556110cd8061003c6000396000f3fe608060405234801561001057600080fd5b50600436106100cf5760003560e01c806348b326fb1161008c578063b4a99a4e11610066578063b4a99a4e146101ab578063e8b65654146101c0578063e8cdd200146101d3578063eeeffa7e146101e6576100cf565b806348b326fb146101705780637a059813146101905780639924bebe14610198576100cf565b80631cae92a3146100d45780632d10fa28146100fd57806340373fe4146101125780634446a04f14610127578063445256f31461013a57806345a020a51461014d575b600080fd5b6100e76100e2366004610ceb565b610208565b6040516100f49190610f2d565b60405180910390f35b610105610327565b6040516100f49190610f1c565b61011a6104cf565b6040516100f49190610f4c565b6100e7610135366004610d4b565b6104d5565b6100e7610148366004610d25565b6105e4565b61016061015b366004610d25565b610611565b6040516100f49493929190610f5a565b61018361017e366004610d25565b610772565b6040516100f49190610f3b565b61011a6108a9565b6101836101a6366004610d25565b6108af565b6101b3610966565b6040516100f49190610ee6565b6100e76101ce366004610d4b565b610975565b6100e76101e1366004610d25565b610b48565b6101f96101f4366004610d25565b610b5d565b6040516100f493929190610ef4565b600080546001600160a01b0316331461022057600080fd5b610229826105e4565b61031d57610235610b97565b5050604080516060810182526001600160a01b038481168252602080830185815260048054858701908152600180548082018255600082815297517fb10e2d527612073b26eecdfd717e6a320cf44b4afac2b0732d9fcbe2b7fa0cf6600392830290810180546001600160a01b031916929099169190911790975593517fb10e2d527612073b26eecdfd717e6a320cf44b4afac2b0732d9fcbe2b7fa0cf787015590517fb10e2d527612073b26eecdfd717e6a320cf44b4afac2b0732d9fcbe2b7fa0cf8909501949094558054840190558584529052919020805460ff191682179055610321565b5060005b92915050565b60606002805480602002602001604051908101604052809291908181526020016000905b828210156104c5578382906000526020600020906004020160405180608001604052908160008201548152602001600182018054600181600116156101000203166002900480601f0160208091040260200160405190810160405280929190818152602001828054600181600116156101000203166002900480156104115780601f106103e657610100808354040283529160200191610411565b820191906000526020600020905b8154815290600101906020018083116103f457829003601f168201915b5050509183525050600282810180546040805160206001841615610100026000190190931694909404601f810183900483028501830190915280845293810193908301828280156104a35780601f10610478576101008083540402835291602001916104a3565b820191906000526020600020905b81548152906001019060200180831161048657829003601f168201915b505050505081526020016003820154815250508152602001906001019061034b565b5050505090505b90565b60055481565b60006104e0846105e4565b156105d9576104ed610bc1565b50604080516080810182528481526020808201858152835180850185526001808252600160fd1b828501529484015260055460608401526002805494850180825560009190915283517f405787fa12a823e0f2b7631cc41b3ba8828b3321ca811111fa75cd3aa3bb5ace60049096029586019081559151805194959194869461059a937f405787fa12a823e0f2b7631cc41b3ba8828b3321ca811111fa75cd3aa3bb5acf01920190610be9565b50604082015180516105b6916002840191602090910190610be9565b5060609190910151600390910155505060058054600190810190915590506105dd565b5060005b9392505050565b60008181526003602052604081205460ff161515600114156106085750600161060c565b5060005b919050565b6002818154811061061e57fe5b9060005260206000209060040201600091509050806000015490806001018054600181600116156101000203166002900480601f0160208091040260200160405190810160405280929190818152602001828054600181600116156101000203166002900480156106d05780601f106106a5576101008083540402835291602001916106d0565b820191906000526020600020905b8154815290600101906020018083116106b357829003601f168201915b50505060028085018054604080516020601f60001961010060018716150201909416959095049283018590048502810185019091528181529596959450909250908301828280156107625780601f1061073757610100808354040283529160200191610762565b820191906000526020600020905b81548152906001019060200180831161074557829003601f168201915b5050505050908060030154905084565b606060005b60055481101561086e57826002828154811061078f57fe5b906000526020600020906004020160000154141561086657600281815481106107b457fe5b90600052602060002090600402016001018054600181600116156101000203166002900480601f0160208091040260200160405190810160405280929190818152602001828054600181600116156101000203166002900480156108595780601f1061082e57610100808354040283529160200191610859565b820191906000526020600020905b81548152906001019060200180831161083c57829003601f168201915b505050505091505061060c565b600101610777565b505060408051808201909152601a81527f4e6f20757365722077697468207468697320696420666f756e640000000000006020820152919050565b60045481565b606060005b60055481101561086e5782600282815481106108cc57fe5b906000526020600020906004020160000154141561095e57600281815481106108f157fe5b600091825260209182902060026004909202018101805460408051601f6000196101006001861615020190931694909404918201859004850284018501905280835291929091908301828280156108595780601f1061082e57610100808354040283529160200191610859565b6001016108b4565b6000546001600160a01b031681565b6000610980846105e4565b156105d95761098d610bc1565b60005b600554811015610b395784600282815481106109a857fe5b9060005260206000209060040201600001541415610b3157600281815481106109cd57fe5b906000526020600020906004020160405180608001604052908160008201548152602001600182018054600181600116156101000203166002900480601f016020809104026020016040519081016040528092919081815260200182805460018160011615610100020316600290048015610a895780601f10610a5e57610100808354040283529160200191610a89565b820191906000526020600020905b815481529060010190602001808311610a6c57829003601f168201915b5050509183525050600282810180546040805160206001841615610100026000190190931694909404601f81018390048302850183019091528084529381019390830182828015610b1b5780601f10610af057610100808354040283529160200191610b1b565b820191906000526020600020905b815481529060010190602001808311610afe57829003601f168201915b5050505050815260200160038201548152505091505b600101610990565b506040018290525060016105dd565b60036020526000908152604090205460ff1681565b60018181548110610b6a57fe5b60009182526020909120600390910201805460018201546002909201546001600160a01b03909116925083565b604051806060016040528060006001600160a01b0316815260200160008152602001600081525090565b6040518060800160405280600081526020016060815260200160608152602001600081525090565b828054600181600116156101000203166002900490600052602060002090601f016020900481019282601f10610c2a57805160ff1916838001178555610c57565b82800160010185558215610c57579182015b82811115610c57578251825591602001919060010190610c3c565b50610c63929150610c67565b5090565b6104cc91905b80821115610c635760008155600101610c6d565b80356103218161106a565b600082601f830112610c9d57600080fd5b8135610cb0610cab82610fcd565b610fa6565b91508082526020830160208301858383011115610ccc57600080fd5b610cd7838284611024565b50505092915050565b803561032181611081565b60008060408385031215610cfe57600080fd5b6000610d0a8585610c81565b9250506020610d1b85828601610ce0565b9150509250929050565b600060208284031215610d3757600080fd5b6000610d438484610ce0565b949350505050565b600080600060608486031215610d6057600080fd5b6000610d6c8686610ce0565b9350506020610d7d86828701610ce0565b925050604084013567ffffffffffffffff811115610d9a57600080fd5b610da686828701610c8c565b9150509250925092565b60006105dd8383610e7a565b610dc581611008565b82525050565b6000610dd682610ffb565b610de08185610fff565b935083602082028501610df285610ff5565b8060005b85811015610e2c5784840389528151610e0f8582610db0565b9450610e1a83610ff5565b60209a909a0199925050600101610df6565b5091979650505050505050565b610dc581611013565b6000610e4d82610ffb565b610e578185610fff565b9350610e67818560208601611030565b610e7081611060565b9093019392505050565b80516000906080840190610e8e8582610edd565b5060208301518482036020860152610ea68282610e42565b91505060408301518482036040860152610ec08282610e42565b9150506060830151610ed56060860182610edd565b509392505050565b610dc5816104cc565b602081016103218284610dbc565b60608101610f028286610dbc565b610f0f6020830185610edd565b610d436040830184610edd565b602080825281016105dd8184610dcb565b602081016103218284610e39565b602080825281016105dd8184610e42565b602081016103218284610edd565b60808101610f688287610edd565b8181036020830152610f7a8186610e42565b90508181036040830152610f8e8185610e42565b9050610f9d6060830184610edd565b95945050505050565b60405181810167ffffffffffffffff81118282101715610fc557600080fd5b604052919050565b600067ffffffffffffffff821115610fe457600080fd5b506020601f91909101601f19160190565b60200190565b5190565b90815260200190565b600061032182611018565b151590565b6001600160a01b031690565b82818337506000910152565b60005b8381101561104b578181015183820152602001611033565b8381111561105a576000848401525b50505050565b601f01601f191690565b61107381611008565b811461107e57600080fd5b50565b611073816104cc56fea365627a7a723158207fc5922ee5d601b234c21ca36795a86c466dfd72fb11fe77a4d6ea52dea689b16c6578706572696d656e74616cf564736f6c63430005100040",
  "source": "// SPDX-License-Identifier: MIT\r\npragma experimental ABIEncoderV2;\r\npragma solidity >=0.5.8;\r\n \r\ncontract Muncipality{\r\n    address public Owner;\r\n    MuncipalityData[] public allMun;\r\n    UserData[] public allUser;\r\n    struct MuncipalityData{\r\n        address muncipalityadrress;\r\n        uint uid;\r\n        uint length;\r\n    }\r\n    struct UserData{\r\n        uint uid;\r\n        string BirthHash;\r\n        string DeathHash;\r\n        uint length;\r\n    }\r\n\r\n    mapping (uint=>bool) public isPresent;\r\n    uint public MuncipalityLength=0;\r\n    uint public UserLength=0;\r\n    constructor() public{\r\n        Owner=msg.sender;\r\n    }\r\n    modifier onlyOwner{\r\n        require(msg.sender==Owner);\r\n        _;\r\n    }\r\n    function CheckPresence(uint uid) public returns(bool){\r\n        if(isPresent[uid]==true){\r\n            return true;\r\n        }\r\n        return false;\r\n    }\r\n    function AddMuncipality(address muncipalityadrress,uint uid) public onlyOwner returns (bool){\r\n        if(!CheckPresence(uid)){\r\n        MuncipalityData memory NewMuncipality=MuncipalityData({\r\n            muncipalityadrress:muncipalityadrress,\r\n            uid:uid,\r\n            length:MuncipalityLength\r\n        });\r\n\r\n        allMun.push(NewMuncipality);\r\n           MuncipalityLength+=1;\r\n        isPresent[uid]=true;\r\n        return true;\r\n\r\n        }\r\n        else{\r\n            return false;\r\n        }\r\n    }\r\n    function AddUserBirthHash(uint munId,uint uid,string memory _BirthHash) public returns(bool){\r\n        if(CheckPresence(munId)){\r\n            UserData memory newUser=UserData({\r\n                uid:uid,\r\n                BirthHash:_BirthHash,\r\n                DeathHash:' ',\r\n                length:UserLength\r\n            });\r\n            allUser.push(newUser);\r\n              UserLength+=1;\r\n            return true;\r\n\r\n        }\r\n        else{\r\n            return false;\r\n        }\r\n    } \r\n    function AddDeathhash(uint munId,uint uid,string memory _DeathHash) public returns(bool){\r\n        if(CheckPresence(munId)){\r\n            UserData memory deadUser;\r\n            for(uint i=0;i<UserLength;i++){\r\n                if(allUser[i].uid==uid){\r\n                    // console.log('In here');\r\n                    deadUser=allUser[i];\r\n                }\r\n            }\r\n            deadUser.DeathHash=_DeathHash;\r\n            return true;\r\n        }\r\n        else{\r\n            return false;\r\n        }\r\n    }\r\n    function getBirthCertificate(uint uid) public view returns(string memory){\r\n            for(uint i=0;i<UserLength;i++){\r\n                if(allUser[i].uid==uid){\r\n                    return allUser[i].BirthHash;\r\n                }\r\n            }\r\n            return \"No user with this id found\";\r\n\r\n    }\r\n          function getDeathCertificate(uint uid) public view returns(string memory){\r\n            for(uint i=0;i<UserLength;i++){\r\n                if(allUser[i].uid==uid){\r\n                    return allUser[i].DeathHash;\r\n                }\r\n            }\r\n            return \"No user with this id found\";\r\n\r\n    }\r\n    function getAllData() public view returns(UserData[] memory){\r\n        return allUser;\r\n    }\r\n\r\n}",
  "sourcePath": "D:\\projects\\pramanit\\pramanit\\Project_SmartContract\\contracts\\Muncipality.sol",
  "compiler": {
    "name": "solc",
    "version": "0.5.16+commit.9c3226ce.Emscripten.clang"
  },
  "schemaVersion": "3.4.3",
  "updatedAt": "2022-06-05T13:42:47.690Z",
  "networkType": "ethereum",
  "devdoc": {
    "methods": {}
  },
  "userdoc": {
    "methods": {}
  }
}